{
  "contractName": "RetailerRole",
  "abi": [
    {
      "constant": false,
      "inputs": [],
      "name": "renounceOwnership",
      "outputs": [],
      "payable": false,
      "stateMutability": "nonpayable",
      "type": "function"
    },
    {
      "constant": true,
      "inputs": [],
      "name": "owner",
      "outputs": [
        {
          "name": "",
          "type": "address"
        }
      ],
      "payable": false,
      "stateMutability": "view",
      "type": "function"
    },
    {
      "constant": true,
      "inputs": [],
      "name": "isOwner",
      "outputs": [
        {
          "name": "",
          "type": "bool"
        }
      ],
      "payable": false,
      "stateMutability": "view",
      "type": "function"
    },
    {
      "constant": false,
      "inputs": [
        {
          "name": "newOwner",
          "type": "address"
        }
      ],
      "name": "transferOwnership",
      "outputs": [],
      "payable": false,
      "stateMutability": "nonpayable",
      "type": "function"
    },
    {
      "inputs": [],
      "payable": false,
      "stateMutability": "nonpayable",
      "type": "constructor"
    },
    {
      "anonymous": false,
      "inputs": [
        {
          "indexed": true,
          "name": "account",
          "type": "address"
        }
      ],
      "name": "RetailerAdd",
      "type": "event"
    },
    {
      "anonymous": false,
      "inputs": [
        {
          "indexed": true,
          "name": "account",
          "type": "address"
        }
      ],
      "name": "RetailerRemove",
      "type": "event"
    },
    {
      "anonymous": false,
      "inputs": [
        {
          "indexed": true,
          "name": "oldOwner",
          "type": "address"
        },
        {
          "indexed": true,
          "name": "newOwner",
          "type": "address"
        }
      ],
      "name": "TransferOwnership",
      "type": "event"
    },
    {
      "constant": true,
      "inputs": [
        {
          "name": "account",
          "type": "address"
        }
      ],
      "name": "isRetailer",
      "outputs": [
        {
          "name": "",
          "type": "bool"
        }
      ],
      "payable": false,
      "stateMutability": "view",
      "type": "function"
    },
    {
      "constant": false,
      "inputs": [
        {
          "name": "account",
          "type": "address"
        }
      ],
      "name": "addRetailer",
      "outputs": [],
      "payable": false,
      "stateMutability": "nonpayable",
      "type": "function"
    },
    {
      "constant": false,
      "inputs": [],
      "name": "renounceRetailer",
      "outputs": [],
      "payable": false,
      "stateMutability": "nonpayable",
      "type": "function"
    }
  ],
  "bytecode": "0x608060405234801561001057600080fd5b50336000806101000a81548173ffffffffffffffffffffffffffffffffffffffff021916908373ffffffffffffffffffffffffffffffffffffffff1602179055506000809054906101000a900473ffffffffffffffffffffffffffffffffffffffff1673ffffffffffffffffffffffffffffffffffffffff16600073ffffffffffffffffffffffffffffffffffffffff167f5c486528ec3e3f0ea91181cff8116f02bfa350e03b8b6f12e00765adbb5af85c60405160405180910390a36100e5336100ea640100000000026401000000009004565b6102a4565b61010b81600161015164010000000002610681179091906401000000009004565b8073ffffffffffffffffffffffffffffffffffffffff167feec1214e6b8cb00b90a8b598bc5a7bdf4fbde6166f05ae8354c9f56f78971dba60405160405180910390a250565b600073ffffffffffffffffffffffffffffffffffffffff168173ffffffffffffffffffffffffffffffffffffffff161415151561018d57600080fd5b6101a68282610210640100000000026401000000009004565b1515156101b257600080fd5b60018260000160008373ffffffffffffffffffffffffffffffffffffffff1673ffffffffffffffffffffffffffffffffffffffff16815260200190815260200160002060006101000a81548160ff0219169083151502179055505050565b60008073ffffffffffffffffffffffffffffffffffffffff168273ffffffffffffffffffffffffffffffffffffffff161415151561024d57600080fd5b8260000160008373ffffffffffffffffffffffffffffffffffffffff1673ffffffffffffffffffffffffffffffffffffffff16815260200190815260200160002060009054906101000a900460ff16905092915050565b61080c806102b36000396000f300608060405260043610610083576000357c0100000000000000000000000000000000000000000000000000000000900463ffffffff1680635da09b8814610088578063715018a6146100e35780638da5cb5b146100fa5780638ec4f505146101515780638f32d59b14610194578063db0e6a2f146101c3578063f2fde38b146101da575b600080fd5b34801561009457600080fd5b506100c9600480360381019080803573ffffffffffffffffffffffffffffffffffffffff16906020019092919050505061021d565b604051808215151515815260200191505060405180910390f35b3480156100ef57600080fd5b506100f861023a565b005b34801561010657600080fd5b5061010f61030c565b604051808273ffffffffffffffffffffffffffffffffffffffff1673ffffffffffffffffffffffffffffffffffffffff16815260200191505060405180910390f35b34801561015d57600080fd5b50610192600480360381019080803573ffffffffffffffffffffffffffffffffffffffff169060200190929190505050610335565b005b3480156101a057600080fd5b506101a96103be565b604051808215151515815260200191505060405180910390f35b3480156101cf57600080fd5b506101d8610415565b005b3480156101e657600080fd5b5061021b600480360381019080803573ffffffffffffffffffffffffffffffffffffffff169060200190929190505050610420565b005b600061023382600161043f90919063ffffffff16565b9050919050565b6102426103be565b151561024d57600080fd5b600073ffffffffffffffffffffffffffffffffffffffff166000809054906101000a900473ffffffffffffffffffffffffffffffffffffffff1673ffffffffffffffffffffffffffffffffffffffff167f5c486528ec3e3f0ea91181cff8116f02bfa350e03b8b6f12e00765adbb5af85c60405160405180910390a360008060006101000a81548173ffffffffffffffffffffffffffffffffffffffff021916908373ffffffffffffffffffffffffffffffffffffffff160217905550565b60008060009054906101000a900473ffffffffffffffffffffffffffffffffffffffff16905090565b61033e3361021d565b15156103b2576040517f08c379a000000000000000000000000000000000000000000000000000000000815260040180806020018281038252601c8152602001807f5468652043616c6c6572206973206e6f7420612052657461696c65720000000081525060200191505060405180910390fd5b6103bb816104d3565b50565b60008060009054906101000a900473ffffffffffffffffffffffffffffffffffffffff1673ffffffffffffffffffffffffffffffffffffffff163373ffffffffffffffffffffffffffffffffffffffff1614905090565b61041e3361052d565b565b6104286103be565b151561043357600080fd5b61043c81610587565b50565b60008073ffffffffffffffffffffffffffffffffffffffff168273ffffffffffffffffffffffffffffffffffffffff161415151561047c57600080fd5b8260000160008373ffffffffffffffffffffffffffffffffffffffff1673ffffffffffffffffffffffffffffffffffffffff16815260200190815260200160002060009054906101000a900460ff16905092915050565b6104e781600161068190919063ffffffff16565b8073ffffffffffffffffffffffffffffffffffffffff167feec1214e6b8cb00b90a8b598bc5a7bdf4fbde6166f05ae8354c9f56f78971dba60405160405180910390a250565b61054181600161073190919063ffffffff16565b8073ffffffffffffffffffffffffffffffffffffffff167fba9dba798ffd19d638f0dd2e5ed81bf800f09ea09de9d36b7d1bfffa42f7ab2e60405160405180910390a250565b600073ffffffffffffffffffffffffffffffffffffffff168173ffffffffffffffffffffffffffffffffffffffff16141515156105c357600080fd5b8073ffffffffffffffffffffffffffffffffffffffff166000809054906101000a900473ffffffffffffffffffffffffffffffffffffffff1673ffffffffffffffffffffffffffffffffffffffff167f5c486528ec3e3f0ea91181cff8116f02bfa350e03b8b6f12e00765adbb5af85c60405160405180910390a3806000806101000a81548173ffffffffffffffffffffffffffffffffffffffff021916908373ffffffffffffffffffffffffffffffffffffffff16021790555050565b600073ffffffffffffffffffffffffffffffffffffffff168173ffffffffffffffffffffffffffffffffffffffff16141515156106bd57600080fd5b6106c7828261043f565b1515156106d357600080fd5b60018260000160008373ffffffffffffffffffffffffffffffffffffffff1673ffffffffffffffffffffffffffffffffffffffff16815260200190815260200160002060006101000a81548160ff0219169083151502179055505050565b600073ffffffffffffffffffffffffffffffffffffffff168173ffffffffffffffffffffffffffffffffffffffff161415151561076d57600080fd5b610777828261043f565b151561078257600080fd5b60008260000160008373ffffffffffffffffffffffffffffffffffffffff1673ffffffffffffffffffffffffffffffffffffffff16815260200190815260200160002060006101000a81548160ff02191690831515021790555050505600a165627a7a723058209147e9c3cd0548f3962363cbee7a839278f69963dda8734d5507796138a049c60029",
  "source": "pragma solidity ^0.4.24;\n\nimport \"../coffeecore/Ownable.sol\";\n// Import the library 'Roles'\nimport \"./Roles.sol\";\n\n// Define a contract 'RetailerRole' to manage this role - add, remove, check\ncontract RetailerRole is Ownable{\n  using Roles for Roles.Role;\n  // Define 2 events, one for Adding, and other for Removing\n  event RetailerAdd(address indexed account);\n  event RetailerRemove(address indexed account);\n  // Define a struct 'retailers' by inheriting from 'Roles' library, struct Role\n  Roles.Role private retailers;\n\n  // In the constructor make the address that deploys this contract the 1st retailer\n  constructor() public {\n    _addRetailer(msg.sender);\n  }\n\n  // Define a modifier that checks to see if msg.sender has the appropriate role\n  modifier onlyRetailer() {\n    require(isRetailer(msg.sender), 'The Caller is not a Retailer');\n    _;\n  }\n\n  // Define a function 'isRetailer' to check this role\n  function isRetailer(address account) public view returns (bool) {\n    return retailers.has(account);\n  }\n\n  // Define a function 'addRetailer' that adds this role\n  function addRetailer(address account) public onlyRetailer {\n    _addRetailer(account);\n  }\n\n  // Define a function 'renounceRetailer' to renounce this role\n  function renounceRetailer() public {\n    _removeRetailer(msg.sender);\n  }\n\n  // Define an internal function '_addRetailer' to add this role, called by 'addRetailer'\n  function _addRetailer(address account) internal {\n    retailers.add(account);\n    emit RetailerAdd(account);\n  }\n\n  // Define an internal function '_removeRetailer' to remove this role, called by 'removeRetailer'\n  function _removeRetailer(address account) internal {\n    retailers.remove(account);\n    emit RetailerRemove(account);\n  }\n}",
  "sourcePath": "/home/hep-cbe-295/nd1309-Project-6b-Example-Template-master/ud-supply-chain/contracts/coffeeaccesscontrol/RetailerRole.sol",
  "compiler": {
    "name": "solc",
    "version": "0.4.24+commit.e67f0147.Emscripten.clang"
  },
  "schemaVersion": "2.0.1",
  "updatedAt": "2022-02-01T06:49:05.726Z"
}